:020000040800F2
:1000000000500020F51100082912000829120008EC
:100010002912000829120008291200080000000017
:10002000000000000000000000000000291200088D
:1000300029120008000000002912000829120008F7
:1000400029120008291200082912000829120008A4
:100050002912000829120008291200082912000894
:100060002912000829120008291200082912000884
:100070002912000829120008291200082912000874
:10008000291200082912000829120008E5060008B4
:10009000E906000829120008E106000829120008F4
:1000A0002912000829120008291200082912000844
:1000B0002912000829120008291200082912000834
:1000C0002912000829120008291200082912000824
:1000D0002912000829120008291200082912000814
:1000E0002912000829120008291200080000000047
:1000F0000000000000000000000000000000000000
:1001000000000000000000005FF808F110B5054C89
:10011000237833B9044B13B10448AFF300800123B3
:10012000237010BD6C01002000000000D03D0008CD
:100130000C4B43B10C4810B50C49AFF300800C4890
:10014000036823B910BD0A48036833B97047094BE7
:10015000002BF7D0BDE810401847064B002BF5D018
:10016000184700BF00000000D03D000870010020CB
:100170006801002000000000154B002B08BF134B46
:100180009D46A3F5803A00218B460F461348144A3A
:10019000121A02F0A4FD0F4B002B00D098470E4B13
:1001A000002B00D098470020002104000D000D48CE
:1001B000002802D00C4800F02AFE02F043FD200087
:1001C000290000F0E3FD00F01FFE00BF0000080062
:1001D00000500020000000007F0D00086C0100208E
:1001E000980600200F0E0008000000000368184762
:1001F00008B10B6803607047704700002DE9F041BB
:10020000104E114C114D0F4802F0C2F8B8B13046F3
:10021000D4F80680677802F055F86378FFB20133AE
:10022000DBB263706278237B08F807009A42A4BFB0
:10023000002363702B7843F001032B70E3E7BDE8E4
:10024000F08100BF3402002079030020F00200207A
:1002500038B50F4CB4F90030013304D148220D49B0
:100260000D4802F0E3FAA3681D6863681D40B4F905
:100270000030013304D13A220649074802F0D6FA89
:100280001DB9E36862681A6038BD2369FAE700BFE8
:10029000D40100204C360008B9360008F8B5002516
:1002A000284C294F6678F6B223789E4249D0A3782D
:1002B000042B34D8DFE803F003151D253700D4F8EC
:1002C00006202378D35C552B01D10123A37023781A
:1002D0000133DBB223702278237B9A42E4DB257062
:1002E000E2E7D4F806202378D35C4E2B11D1022309
:1002F000ECE7D4F806202378D35C452B09D10323FF
:10030000E4E7D4F806202378D35C522B01D10423F0
:10031000DCE723782BB12378013BDBB22370A57097
:10032000D5E7237BF8E74721384601F0DAFFA570CF
:10033000237823B12378013BDBB22370C7E7237B0B
:10034000F9E7F8BD7903002034020020C36810B536
:1003500004460BB19B689847204610BDC36810B592
:1003600004460BB19B689847204610BD38B505463A
:100370000446064B45F8183B02F008F92846FFF7FB
:10038000EDFF204602F0CEF9204638BD883B00083C
:1003900010B50446FFF7EAFF2046282102F0C2FA12
:1003A000204610BD70B5064604460B4B00F1B8055B
:1003B00046F8983BB54204D0103D2846FFF7CEFFE3
:1003C000F8E704F13800FFF7C1FF04F12800FFF758
:1003D000BDFF204670BD00BF703B000810B504464D
:1003E000FFF7E0FF2046BC2102F09CFA204610BD3A
:1003F00010B50446024B0360FFF7D4FF204610BD42
:10040000083B000838B5CB6804460D460BB15B6865
:100410009847EB682046E36038BD000000B5234BE9
:1004200089B0234C694604A800930394FFF7EAFFC0
:100430002048FFF793FF04A91E48FFF7E3FF1E497A
:100440001E4802F08FF804A8FFF788FF6846FFF700
:1004500085FF4FF4E1311A4801F086FF194B002265
:1004600004A917480493079402F018F804A8FFF7AA
:1004700075FF00224020144C144922706270E27013
:100480002271A272A2702073C4F806101049E272A1
:100490000A704A708A700F4AC1F80320C8716278E6
:1004A00023789A42FBD0FFF7F9FEF8E751020008E3
:1004B00040360008A0030020400D03008803002000
:1004C00034020020FD0100087903002031030020E0
:1004D00071030020F102002010B50446FFF788FFE9
:1004E0002046BC2102F01EFA204610BD70B52F4CEC
:1004F0008EB014220021204602F0F1FB20462D216F
:100500004FF0FF3402F09BF80423294E294D0C9440
:100510000B940A94099408940794069405940494FF
:100520000394029401940093062205230721304688
:1005300001F0CAFD2A462049304600F063FC1F2323
:100540001E4E0C940B940A940994089407940694F4
:10055000059404940394029401940093184C1E2370
:1005600017221621304601F037FE2A46154930463B
:1005700000F048FC4FF416530A220921204601F0EE
:1005800097FE2046104C2A46104900F03BFC2046BE
:1005900002F0A8F80E4B2A462360204600230D499E
:1005A00063620EB0BDE8704000F02CBCD4010020A6
:1005B00088010020EC00002091200008E8010020C4
:1005C00034020020A121000888030020F103000864
:1005D000883B00086D0300083A4970B54B693A4CF6
:1005E000DB0721602FD58A68384B384813401D1A25
:1005F0008A68374B684203EA0203354A68419E1A0B
:100600008D68344B724203EA0503324D7241C5EBEB
:10061000030CDCF1000343EB0C0308B101258D60F2
:100620001AB128494FF480758D601BB125494FF4EC
:1006300080358D6008B902B92BB1274B274A1B685A
:100640001068012198472368DA685B69920707D030
:100650009E0705D5204B214A1B681068002198474A
:10066000236899695A698D075B6909D5900507D593
:10067000190405D5184B194A1B68106805219847BD
:1006800023689E695D69C6F38006C5F380255B69B2
:1006900046B13DB11A0405D50F4B104A1B681068CE
:1006A0000721984723685B6956B14DB11B0407D5F4
:1006B000BDE87040084B094A1B68106802211847C2
:1006C00070BD00BF00640040B003002003000004C0
:1006D0000003000800000310F0030020F4030020D2
:1006E000FFF77ABFFFF778BFFFF776BF10B50C4C66
:1006F000A268A4681346B4F1006F0CD1131F094A15
:1007000053F8044F42F8044F074CA242F8D1044A70
:100710004FF000539360103043F8201010BD00BF1D
:1007200000ED00E0FCFFFF1FE8000020431C10B5B7
:10073000044604D106480749262202F077F82046ED
:10074000002100F09BF904F00F040120A04010BD2F
:10075000BE3600086437000870B504464B1C0E46D0
:10076000218010D0C1F3031000F03EF90546304659
:10077000FFF7DCFF05F10803A36005F11003143552
:100780006060E360256170BDB0F9000000F016BA4A
:1007900038B5B0F90030054601330C4604D108489D
:1007A0000849492202F042F8012CB5F9000008BFBF
:1007B0002146BDE8384018BF002100F05FB900BFF6
:1007C000B936000864370008F8B52C4B2C4C5E6A2B
:1007D0001A692360D20712D5DA68D7070FD56FF0F0
:1007E00001021A61274B1A6801321A601A68B3B203
:1007F00003EB0243244A1360244B01221A701F4B5F
:100800001A6995071FD5DA6890071CD56FF00202A8
:100810001F4D1A612B889BB233B1288880B201F03A
:10082000A3FB00232B800EE01A4F3B684BB14FF621
:10083000FF70B6B201F098FB2E803B68013B3B6035
:1008400001E001F0EDFF23681A69510714D5DA6859
:10085000520711D56FF004020F4D1A615C6A2B68C4
:10086000E31AB3F57A7F07D300F0F2FC044B04F5EA
:100870007A721B689A632C60F8BD00BF00080040C4
:1008800054060020E8050020DC050020900600202A
:10089000E0050020EC050020F8030020274B37B5C9
:1008A000DA69274C42F00402DA61DA69002502F0C5
:1008B00004020192019A1A6942F004021A611A694B
:1008C00022F004021A6101F087FA1E4B1E4A2360CF
:1008D0004FF6FF73E3601D4B20461B682561B3FB99
:1008E000F2F3013B6360A56001F072F929462046EE
:1008F00001F094F92046042101F090F92268144B8C
:10090000516A1E2019601B68124903F57A739363BC
:10091000FFF7ECFE104B4FF080421A602368204630
:10092000DA6842F00102DA60DA6842F00402DA6062
:1009300001F00DF9284603B030BD00BF00100240A1
:10094000540600200008004040420F00F400002040
:10095000F8030020C907000800E100E008B501F035
:1009600089FF962001F0D9FF962001F0D6FFF8E725
:1009700030B505460C46A1B001F07CFF294668461B
:10098000224602F00FFA051E03DC01F09DFF21B0A4
:1009900030BD094B1B6823B908480221032200F02F
:1009A000DFFA00241DF804100448013400F00CFCA8
:1009B000AC42F7D1E9E700BFC405002008060020DB
:1009C0000FB407B504A951F8040B0191FFF7D0FF4C
:1009D00003B05DF804EB04B0704708B501F0FCF912
:1009E000BDE8084000F022BC1FB5032833D8DFE87B
:1009F00000F0020E1A261B4B1B489A6942F00402B3
:100A00009A619B6903F004030393039B27E0154B52
:100A100016489A6942F008029A619B6903F008033C
:100A20000093009B1BE00F4B11489A6942F01002A3
:100A30009A619B6903F010030193019B0FE0094B3E
:100A40000C489A6942F020029A619B6903F02003E6
:100A50000293029B03E0084801F0FAFE002005B073
:100A60005DF804FB0010024000080140000C01404A
:100A70000010014000140140AC3700082DE9F0439C
:100A8000431C87B005460C4604D1474847495622C7
:100A900001F0CCFEC5F30310FFF7A6FF444B04F0B2
:100AA0000F079A69C4F3021642F001029A619B692A
:100AB000C4F3C31903F00103ACB2019304F00F08AF
:100AC000019BB9F1000F44D009F1FF31092940D849
:100AD000DFE801F0050A0F141920272E3338354AB4
:100AE000536843F0010333E0324A536843F0020392
:100AF0002EE0304A536843F0040329E02D4A53683E
:100B000043F0080324E02B4A536823F0300343F0FA
:100B100010031DE0274A536823F0C00343F040034D
:100B200016E0244A536823F4406343F400630FE063
:100B3000204A536843F440730AE01E4A536843F462
:100B4000406305E01B4A536823F4C04343F48043E9
:100B50005360012303FA08F30293174B02A953F8D9
:100B60002730049603930323059300F09FFBA4F121
:100B70000D03012B07D80F4A536823F0E06343F0BD
:100B80008063536009E00F2D07D10A4A536823F0B0
:100B9000E06343F00073536002E0133C012CF4D98E
:100BA00007B0BDE8F08300BFBE360008CD370008AF
:100BB000001002400000014024380008F8B5431C32
:100BC00007460D4604D125482549A42201F02EFEF2
:100BD000C7F30310FFF708FFBCB204F00F06072E9F
:100BE0008DBF04F00703B30002469B0088BF021DBF
:100BF000002D31D0022D02D9032D21D0F8BD14686B
:100C00000321994021420BD11468082199402143C6
:100C100011601168042404FA03F321EA030313604A
:100C2000012D15BF0123C368C26805FA06F115BF7F
:100C3000B340194322EA0303C16018BFC360F8BD83
:100C4000106805FA03F101421FBF1168042000FA81
:100C500003F30B4318BF1360F8BD00BFBE36000896
:100C6000CD37000808B5084B1B685BB9074802215F
:100C7000032200F075F905484FF41651BDE808400D
:100C800000F012BA08BD00BFC4050020080600200D
:100C900002284FF0000309DD0749C21E51F8220067
:100CA00041F8223020B103685B6818471846704746
:100CB0004FF0FF30704700BF00040020022870B5DD
:100CC0000C4615460FDC0E4B1B680BB9FFF7CAFF2D
:100CD0006619B44205D00B4814F8011B00F074FAF1
:100CE000F7E7284670BD084B033853F8200020B1C1
:100CF000BDE8704003681B6818474FF0FF3070BDB7
:100D0000C40500200806002000040020022810B5B9
:100D10000C460ADC0B4B1B680BB9FFF7A3FF0A4814
:100D200000F032FA2070012010BD084B033853F850
:100D3000200020B1BDE8104003689B6818474FF0C1
:100D4000FF3010BDC405002008060020000400206C
:100D5000022807DD064B033853F8200020B1036852
:100D60001B691847002070474FF0FF30704700BFE5
:100D70000004002008B5012000F046F8704708B5CF
:100D8000FFF72BFEFFF7FAFF08BD704708B5FFF726
:100D9000FCFFBDE80840FFF741BB00000C4A10B55E
:100DA00013681844EFF30881884205D3094B0C22DD
:100DB0001A604FF0FF3010BD0749096821B1074C98
:100DC000246821448842F1D21060184610BD00BF4B
:100DD000F000002094060020FC0300200005002005
:100DE0000546074C08B52368986801F04FFE236854
:100DF000D86801F04BFE0DB1FFF7B0FDFEE700BF74
:100E0000F80000200120704708B5FFF7E9FF012036
:100E100070477047704708B5FFF7FBFF08BD08B57E
:100E2000FFF7F8FF08BD000010B501F02FFF0446E2
:100E300010B9024801F00CFD204610BD073900082A
:100E400008B101F02BBF70474309064900F01F00AD
:100E500001228240203341F82320BFF34F8FBFF39C
:100E60006F8F704700E100E00346426810B51749F4
:100E70001C68920188188C509A68D96842600246B2
:100E800042F8081F1969516059699160196A00F1A7
:100E9000100291600021C1848184C1858185B3F9EC
:100EA0001A10013101D1082305E0B3F918300133DC
:100EB0000CBF04230C23536000F061FF20B1BDE898
:100EC0001040034801F0C4BC10BD00BF0405002061
:100ED000A83900081A4BF7B5074653F820001E46FC
:100EE00000282BD0174CBD0163591A6852060AD549
:100EF000DB68590607D5144B01211B6898476359D5
:100F00006FF040021A6063591A6892060DD5DB68CB
:100F100098060AD50C4B56F827001B680021984705
:100F2000084B6FF020025B591A6063591A68110769
:100F300004D55A69D20744BF5B68019303B0F0BD82
:100F4000C805002004050020D40500200020FFF77C
:100F5000C1BF0120FFF7BEBF0220FFF7BBBF0000EB
:100F6000F0B5044685B008460E464549154601F0E1
:100F7000A5FB44490746284601F0A0FB0146384638
:100F800001F07EFB2060013004D13F483F496422DC
:100F900001F04CFC23683E4A934213D13D4BDA6882
:100FA00042F48042DA60DA6822F48042DA609A69B8
:100FB00042F480429A619B6903F480430193019B50
:100FC00000232CE0344A934213D1324B1A6942F485
:100FD00000321A611A6922F400321A61DA6942F4A5
:100FE0000032DA61DB6903F400330293029B0123D0
:100FF00015E02A4A934213D1264B1A6942F4802203
:101000001A611A6922F480221A61DA6942F4802294
:10101000DA61DB6903F480230393039B022363609B
:101020003046174901F00EFB2846164901F00AFB2D
:10103000721C03D030460121FFF7C0FD6B1C03D0AA
:1010400028460121FFF7BAFD4FF41653A360002391
:10105000E360236163612362268365832046FFF793
:1010600003FF22680C4B9A4207D10D4B01221A60F4
:101070000C4821464C2201F027FE05B0F0BD00BF10
:101080001C370008D4360008C0390008DC390008D5
:101090000038014000100240004400400048004079
:1010A000C4050020080600208160FFF7DDBE0000B7
:1010B000034B19604168034B43F82120704700BF80
:1010C000D4050020C805002038B509C80D462149BF
:1010D000884202D1204925240CE02049884202D1CF
:1010E0001F49262406E01F49884219BF00210C46EB
:1010F0001D4927241D489B01AAB1C258D36815B9C0
:1011000043F0200301E043F0400365B2D36028467A
:10111000FFF7ECFA04F007040123154A6D09A34018
:1011200042F8253038BDC358DA6835B922F02002BC
:10113000DA60DB681A0606D538BD22F04002DA60B4
:10114000DB689B0604D42046BDE83840FFF77CBE30
:1011500038BD00BF003801404D0F0008004400407A
:10116000530F000800480040590F000804050020F4
:1011700000E100E04368034A9B01D3581868C0F3BC
:10118000401070470405002038B5054644682846DD
:10119000FFF7F0FF0028FAD0054AA301D358E96809
:1011A000586809B9C0B238BDC0F3080038BD00BFE7
:1011B000040500204368034A9B01D3581868C0F314
:1011C000C01070470405002070B506460C464568FF
:1011D0003046FFF7EFFF0028FAD0054AF168AB016F
:1011E000D35809B9E4B201E0C4F308045C6070BDEF
:1011F0000405002008488546002103E0074B5B58A2
:10120000435004310648074B42189A42F6D300F087
:1012100071FEFEF7B1FFFEE700500020DC3D000844
:10122000EC0000206C010020FEE77047074A08B57B
:101230001368032043F01003136000F025F80F201B
:10124000FFF72CFBFFF7F1FF002008BD0020024054
:10125000024A136801331360704700BFD8050020AD
:10126000014B1868704700BFD805002013B50190E6
:10127000FFF7F6FF0446FFF7F3FF019B001B9842C0
:10128000F9D302B010BD0000074A00F00700D36890
:1012900023F4E0631B041B0C43F0BF6343F40033EF
:1012A00043EA0023D360704700ED00E00023F7B568
:1012B0001D4601220C68AA401440944240F0AC80C4
:1012C0004A68122A2BD00ED8022A25D004D84AB355
:1012D000012A30D1CB682EE0032A1BD0112A2AD153
:1012E000CB68043327E04F4EB2421BD006D8A6F598
:1012F0008016B24216D006F5803608E04A4EB24259
:1013000010D006F58036B2420CD0A6F58016B24257
:1013100011D107E000230EE0CB6808330BE0CB6867
:101320000C3308E08B682BB1012B0CBF04614461C6
:10133000082300E00423FF2C97BF8646A5F1080789
:101340000668AF0084BF4668BF004FF00F0202FA84
:1013500007FC26EA0C0603FA07F746EA070688BFE9
:1013600000F1040ECEF800604F68FE0054D52F4EF9
:1013700005F0030CD6F818E04FEA8C0C4EF0010E85
:10138000C6F818E0B66902FA0CF206F001060196FA
:10139000019E25F0030606F1804606F58036D6F854
:1013A00008E02EEA020E224A90420ED002F5806238
:1013B00090420CD002F5806290420AD002F5806221
:1013C00090420CBF0322042204E0002202E001222A
:1013D00000E0022202FA0CF242EA0E02B260154A62
:1013E00017F4803F166814BF2643A643166056685C
:1013F00017F4003F14BF2643A6435660966817F4BF
:10140000801F14BF2643A6439660D668BF024CBF18
:10141000344326EA0404D4600135102D7FF449AF2B
:1014200003B0F0BD00002110000031100010024098
:1014300000080140000401400368F7B50546D807DD
:1014400003D42B68990773D4F0E0B74C636803F0BA
:101450000C03042B07D0636803F00C03082B16D190
:101460006368DA0313D54FF4003393FAA3F22268CA
:1014700093FAA3F3B3FA83F303F01F0322FA03F3FF
:10148000DB07DED56B68002BDBD1012030E26B6817
:10149000B3F5803F13D05BB9236823F48033236016
:1014A000236823F480232360FFF7DAFE06462FE04B
:1014B000B3F5A02F236806D143F48023236023686B
:1014C00043F4803305E023F480332360236823F45E
:1014D00080232360FFF7C4FE06464FF4003393FADF
:1014E000A3F2226893FAA3F3B3FA83F303F01F0382
:1014F00022FA03F3DF07A4D4FFF7B2FE801B6428AF
:10150000EBD90320F4E1FFF7ABFE801B6428F8D889
:101510004FF4003393FAA3F2226893FAA3F3B3FAD9
:1015200083F303F01F0322FA03F3D807EBD488E711
:101530007D4C636813F00C0F07D0636803F00C0355
:10154000082B20D16368D9031DD4022393FAA3F298
:10155000226893FAA3F3B3FA83F303F01F0322FA8A
:1015600003F3DA0702D52B69012B8ED12268F8210B
:1015700091FAA1F1B1FA81F16B6922F0F8028B4086
:101580001343236052E02A69012372B393FAA3F252
:10159000B2FA82F2920002F1844202F584021360F0
:1015A000FFF75EFE0646022393FAA3F25E48226826
:1015B00093FAA3F3B3FA83F303F01F0322FA03F3BE
:1015C000DB0705D4FFF74CFE801B0228EBD998E718
:1015D0000268F82191FAA1F1B1FA81F16B6922F068
:1015E000F8028B401343036020E093FAA3F3B3FAAD
:1015F00083F39B0003F1844303F584031A60FFF730
:101600002FFE0646022393FAA3F2226893FAA3F36D
:10161000B3FA83F303F01F0322FA03F3DF0705D5C0
:10162000FFF71EFE801B0228ECD96AE72B681C0717
:1016300046D5AA693C4C01233C4912B393FAA3F264
:10164000B2FA82F241F82230FFF70AFE0646022380
:1016500093FAA3F293FAA3F2626A93FAA3F3B3FAAA
:1016600083F303F01F0322FA03F3D80705D4FFF72F
:10167000F7FD801B0228EAD943E70120FFF7F6FDBA
:101680001EE093FAA3F3B3FA83F341F82320FFF7A4
:10169000E7FD0646022393FAA3F293FAA3F2626AE5
:1016A00093FAA3F3B3FA83F303F01F0322FA03F3CD
:1016B000D90705D5FFF7D4FD801B0228EAD920E71A
:1016C0002B685A0704D4EA69002A40F08680DEE0DD
:1016D000154C174AE36943F08053E361E36903F073
:1016E00080530193019B136843F480731360FFF7E9
:1016F000B7FD06460E4B1B68DB0505D4FFF7B0FDB2
:10170000801B6428F6D9FCE6EB68012B18D08BB956
:10171000236A23F001032362236A23F00403236274
:10172000FFF79EFD064640E0001002408004424262
:1017300000700040052B236A06D143F004032362A6
:10174000236A43F0010305E023F001032362236AC7
:1017500023F004032362FFF783FD0646022393FA76
:10176000A3F293FAA3F2B2FA82F242F040025209D3
:101770009A420CBF226A626A93FAA3F3B3FA83F324
:1017800003F01F03DA40D7079DD4FFF769FD41F24C
:101790008833801B9842E1D9B3E6FFF761FD41F23F
:1017A0008833801B98423FF6ACAE022393FAA3F233
:1017B00093FAA3F2B2FA82F242F0400252099A423C
:1017C0000CBF226A626A93FAA3F3B3FA83F303F0BD
:1017D0001F03DA40D007E0D475E7464C636803F096
:1017E0000C03082B3FF451AE022A4FF080735CD1FA
:1017F00093FAA3F3B3FA83F39B0003F1844303F555
:10180000840300221A60FFF72BFD06464FF0007399
:1018100093FAA3F2374F226893FAA3F3B3FA83F350
:1018200003F01F0322FA03F3D90732D42E6AB6F568
:10183000803F01BF796821F40030A968014308BFE7
:10184000796063686A6A23F47413324313436360F4
:101850004FF0807393FAA3F3B3FA83F39B0003F181
:10186000844303F5840301221A60FFF7F9FC05465F
:101870004FF0007393FAA3F2226893FAA3F3B3FA3A
:1018800083F303F01F0322FA03F3DA0707D50020DE
:101890002EE0FFF7E5FC801B0228B7D931E6FFF701
:1018A000DFFC401B0228E3D92BE693FAA3F3B3FA3B
:1018B00083F39B0003F1844303F5840300221A6041
:1018C000FFF7CEFC05464FF0007393FAA3F22268AF
:1018D00093FAA3F3B3FA83F303F01F0322FA03F39B
:1018E000DB07D4D5FFF7BCFC401B0228EBD908E688
:1018F00003B0F0BD001002401F4B70B503F110059E
:101900002E4686B002AC224618685968083303C2D6
:10191000AB421446F7D133881848ADF8043041681B
:1019200001F00C03082B23D14FF4701292FAA2F2AB
:10193000B2FA82F201F47013D34006AA134413F8EA
:10194000102CCB0311D543684FF4003191FAA1F16B
:10195000B1FA81F103F40033CB4006A90B4413F82C
:10196000140C074BB3FBF0F000E00648504300E0D6
:10197000034806B070BD00BFA53A00080010024041
:1019800000127A0000093D00544AF8B51368064673
:1019900003F0070399420D460AD831688C0713D526
:1019A0004F48436823F0F002B368134343600BE0F1
:1019B000136823F007030B431360136803F0070356
:1019C0008B42EAD00120F8BDC80706D4434A136809
:1019D00003F007039D424DD356E07268404C012A44
:1019E00002D14FF4003304E0022A0CBF4FF0007321
:1019F000022393FAA3F1216893FAA3F3B3FA83F3D2
:101A000003F01F0321FA03F3D907DBD5636823F042
:101A100003031A436260FFF723FC73680746012B38
:101A20000DD1636803F00C03042BCFD0FFF718FC33
:101A300041F28833C01B9842F3D90320F8BD022B32
:101A400013D1636803F00C03082BBFD0FFF708FC29
:101A500041F28833C01B9842F3D9EEE7FFF700FC50
:101A600041F28833C01B9842E7D8636813F00C0F2B
:101A7000F4D1ABE7136823F007032B43136013681B
:101A800003F00703AB429DD13168154C11F0040FF0
:101A900005D0636823F4E062F368134363600B07C7
:101AA00041BF6368326923F4605343EAC20348BF0D
:101AB0006360FFF721FF6368F02292FAA2F2B2FAA4
:101AC00082F203F0F003D340064AD35CD840064BC1
:101AD00018600F20FEF7E2FE0020F8BD0020024053
:101AE00000100240B73A0008F4000020084B4FF401
:101AF000E0625B6892FAA2F2B2FA82F203F4E06367
:101B0000D340044AD35C044A1068D840704700BFF1
:101B100000100240C73A0008F4000020084B4FF4C0
:101B200060525B6892FAA2F2B2FA82F203F4605356
:101B3000D340044AD35C044A1068D840704700BFC1
:101B400000100240C73A0008F40000207047026805
:101B5000022380F83930136843F001031360012336
:101B600080F8393000207047184A036890420AD044
:101B7000B0F1804F07D0A2F59432904203D002F525
:101B80008062904215D14A6823F0700313430F4AD4
:101B900090420AD0B0F1804F07D0A2F59432904223
:101BA00003D002F58062904203D1CA6823F44073E7
:101BB000134303608B68C3620B688362034B9842D4
:101BC00004BF0B690363012343617047002C01408C
:101BD00010B50446A0B190F8393003F0FF021BB9EC
:101BE00080F83820FFF7B2FF022384F839302068EC
:101BF000211DFFF7B9FF012384F83930002010BD03
:101C0000012010BD10B50123046A8B4024EA0303B0
:101C10000362036A8A401343036210BD10B5044691
:101C200001220068FFF7EEFF2368064A0020934276
:101C300002BF5A6C42F400425A641A6842F0010230
:101C40001A6010BD002C01402DE9F04705680169BC
:101C50002B69804623F44052C368192413432B6137
:101C60008368EA6819434369194322F4B05323F0A7
:101C70000C030B43EB606B6923F4407283691343DD
:101C80006B613D4B9D4231D1FFF748FF6043D8F86F
:101C900004604FF06409B600B0FBF6F6FFF73EFFB4
:101CA0006043D8F80430B6FBF9F69B00B0FBF3F7BD
:101CB000FFF734FF6043D8F8043036019B00B0FBD7
:101CC000F3F0B0FBF9F009FB10731B013233B3FBE7
:101CD000F9F303F0F007FFF721FF6043D8F8042081
:101CE0009200B0FBF2FAFFF719FF30E0FFF7FEFEBB
:101CF0006043D8F804604FF06409B600B0FBF6F614
:101D0000FFF7F4FE6043D8F80430B6FBF9F69B0009
:101D1000B0FBF3F7FFF7EAFE6043D8F80430360172
:101D20009B00B0FBF3F0B0FBF9F009FB10731B0153
:101D30003233B3FBF9F303F0F007FFF7D7FE60434C
:101D4000D8F804209200B0FBF2FAFFF7CFFE44432C
:101D5000D8F804008000B4FBF0F0B0FBF9F009FB08
:101D600010A212013232B2FBF9F202F00F02BB18DC
:101D70003344AB60BDE8F08700380140704710B5D0
:101D8000044630B390F8393003F0FF021BB980F8F5
:101D90003820FFF7F3FF2268022384F83930D36834
:101DA000204623F40053D360FFF74EFF2368002042
:101DB0001A6922F490421A615A6922F02A025A6181
:101DC000DA6842F40052DA600123E06384F83930C3
:101DD00010BD012010BD0000114A124B516801F0E6
:101DE0000C01042901D0082901D00F490EE05168E7
:101DF0005068C1F38341C00301F1020102D550686C
:101E0000800301D5094800E0074841431960526842
:101E10000749C2F30312895C1A68CA401A60704706
:101E200000100240F400002000127A0000093D007A
:101E3000B73A000830B5012391B0069310B94FF4BA
:101E4000803301E04FF4A02307934FF48033002444
:101E500002250E9306A84FF4E01308940D950F93F6
:101E6000FFF7EAFA78B90F23019303904FF48063E8
:101E70000590294601A802950493FFF785FDB0FA65
:101E800080F0400900E0204611B030BD30B503239A
:101E900091B0069301230A93102300240B9302258B
:101EA0004FF4601306A807940D950E940F93FFF757
:101EB000C3FA78B90F23019303904FF48063059020
:101EC000294601A802950493FFF75EFDB0FA80F061
:101ED000400900E0204611B030BD08B50120FFF7F1
:101EE000A9FF30B9FFF7A6FF18B9FFF7CFFF00B978
:101EF000FEE708BD10B5174C236843F001032360CB
:101F00006268154B1340636023684FF0006223F052
:101F1000847323F480332360236823F480232360B5
:101F2000636823F4FE0363604FF41F03A3600B4B4D
:101F30009A600B4B0B4A1A60FFF778F9FFF7CDFF59
:101F4000236943F004032361236923F0040323611D
:101F500010BD00BF001002400000FFF800ED00E0DF
:101F6000F400002000127A00044B054A1360586305
:101F7000DA6842F00202DA60704700BF00080040F1
:101F800054060020054B186830B901221A60044A33
:101F9000044B1A60FEF782BC704700BFE4050020C6
:101FA00000080040540600200B4B0C4A10B513608B
:101FB0000B4A1C4612680AB9FFF7E4FF094A0023DE
:101FC00009491370636A08681278012A0ABF074B2F
:101FD00003EB0040186810BD0008004054060020C4
:101FE000E405002090060020E8050020DC05002024
:101FF00038B50446FFF7D8FF144B201A5D6A002855
:10200000ADB203DCBDE8384000F00ABC104B114C07
:10201000021480B21A6020802288C5F57F4392B2F4
:10202000FF339A4207DC2088284480B2FFF79CFFE8
:102030000023238038BD4FF6FF70FFF795FF2088FF
:1020400080B20130284480B2208038BD00080040B2
:10205000EC050020E0050020034B044A1360DA6819
:1020600022F00202DA6070470008004054060020A7
:10207000044B054A13601A69920744BF6FF00202CD
:102080001A617047000800405406002070477047EE
:1020900070B504460546064B00F14006036055F84E
:1020A000040F08B1FEF7CCFEB542F8D1204670BD52
:1020B000D83A000810B50446FFF7EAFF2046FEF7BD
:1020C000BFFE204610BD00002DE9F0410546A846A0
:1020D00088B0ADF80430BDF938302F48ADF806307F
:1020E000BDF93C300024ADF80830BDF9403028601F
:1020F000ADF80A30BDF94430ADF80010ADF80C3041
:10210000BDF94830ADF80220ADF80E30BDF94C30C5
:102110006C64ADF81030BDF95030ADF81230BDF937
:102120005430ADF81430BDF95830ADF81630BDF963
:102130005C30ADF81830BDF96030ADF81A30BDF93B
:102140006430ADF81C30BDF96830ADF81E303DF993
:1021500014707B1C0CD01420FEF766FE064600218E
:10216000142200F0BCFD3046394600F04EFA00E083
:10217000002601371FBF01236A6CA340134304F1FB
:10218000010448F8046F18BF6B64102CDFD1284697
:1021900008B0BDE8F08100BFD83A0008704770472A
:1021A00070B504460546064B00F14006036055F83D
:1021B000040F08B1FEF744FEB542F8D1204670BDC9
:1021C000F03A000810B50446FFF7EAFF2046FEF794
:1021D00037FE204610BD00002DE9F0410546A84617
:1021E00088B0ADF80430BDF938302F48ADF806306E
:1021F000BDF93C300024ADF80830BDF9403028600E
:10220000ADF80A30BDF94430ADF80010ADF80C302F
:10221000BDF94830ADF80220ADF80E30BDF94C30B4
:102220006C64ADF81030BDF95030ADF81230BDF926
:102230005430ADF81430BDF95830ADF81630BDF952
:102240005C30ADF81830BDF96030ADF81A30BDF92A
:102250006430ADF81C30BDF96830ADF81E303DF982
:1022600014707B1C0CD01420FEF7DEFD0646002106
:10227000142200F034FD3046394600F0E0F900E069
:10228000002601371FBF01236A6CA340134304F1EA
:10229000010448F8046F18BF6B64102CDFD1284686
:1022A00008B0BDE8F08100BFF03A00087047704701
:1022B00010B5044600F088F8014B2046236010BD9D
:1022C000083B000838B5044603681B689847204659
:1022D00000F06FF80546236820465B68984728465B
:1022E00038BD38B504460D4603681B689847294633
:1022F000204600F061F80546236820465B68984751
:10230000284638BD70477047704710B588B11468CB
:1023100053680CB9DA070CD513F0010F4FEA6303C9
:1023200018BFC258184418BF14592346BDE81040BE
:10233000184710BD70B509014418D4F8A43001F154
:10234000980505442BB90648064940F2E71200F00B
:102350006DFAD4F8A4302846BDE870401B681847D1
:10236000183B00081D3B000870B505460E460446A4
:1023700055F84C3B1B68984728463146FEF794FEBB
:102380002368C4F8B8602046BDE870405B68184711
:1023900038B5054655F84C3B04461B689847284617
:1023A000FEF7E8FE0546236820465B689847284606
:1023B00038BD4C30FEF7E8BE10B50C464C30FEF789
:1023C00003FF204610BD00002DE9F347904602466A
:1023D00004469A462B4B002542F8083B009502AB79
:1023E0000195894613E90300274B82E80300236126
:1023F00048F207036361254BE561A46122626362D1
:10240000BFF36F8FBFF34F8F04F14C0604F19807B1
:102410006563656484F8485084F84950304629461D
:102420004C2200F05CFCC4F8A450C4F8B450C4F8CA
:10243000B8A03846FDF792FF2FB1154BC4F898307D
:10244000144BC4F8A43004F1A8052846FDF786FF14
:102450002DB10F4BC4F8A8300E4BC4F8B43042462F
:1024600030464946FEF77CFD3046D4F8B810FEF7FA
:102470001BFE304608492246FEF71AFE204602B0EF
:10248000BDE8F087703B000801A090E80B2300082E
:102490000523000840360008352300082DE9F041E7
:1024A00007468846164657F84C3B05461B68984732
:1024B00000F0E0F9D8F80C3034019834ABB12C447A
:1024C0002046FDF74BFF64B1D8F80C301BB15B68B8
:1024D000204641469847D8F80C2005EB0613C3F870
:1024E000A42038463146012211E005EB040840469D
:1024F000FDF734FFB8F1000F06D00A4B0A4A2B5102
:1025000005EB0613C3F8A420384631460022FEF737
:10251000DBFD00F0D9F92B682846BDE8F0415B6887
:10252000184700BF052300084036000870B5044670
:102530004368416904F11805194400F0E7F8636A3B
:102540002BB90648064940F2E71200F06FF9636ABA
:102550002846BDE870401B68184700BF183B0008BC
:102560001D3B000838B505460C4600F083F92846A7
:1025700000F0D2F86C61286900F04BF90119284687
:1025800000F0C4F8BDE8384000F09EB938B5044604
:1025900000F070F904F11805204600F0BDF8284657
:1025A000FDF7DCFE0DB100236362BDE8384000F0AA
:1025B0008BB9000038B5B0F90030044601330D4640
:1025C00004D1064806493A2200F030F963680DB19B
:1025D000E26800E02269136038BD00BFB936000828
:1025E000943B000870B50E4604461546FEF7B4F855
:1025F000013609D020460021FEF7CAF820462946B8
:10260000BDE87040FEF7C0B870BD0022FFF7EABF1A
:1026100070B50E4604461546FEF79EF801360DD0FD
:1026200020462946FFF7C6FF20460121FEF7B0F8F5
:102630002046BDE870400021FEF7A6B870BD00221C
:10264000FFF7E6BF10B50446013001D110BD0C31D3
:10265000B1F900305A1C0BD0A342F8D1204689684A
:10266000FEF70CFA2046BDE810400021FEF7A6BA9E
:102670000248BDE8104000F0EBB800BFF73B00088F
:10268000884208B50AD0431C07D0013106D004485F
:1026900000F0DEF84FF0FF3008BD084608BD00BF6F
:1026A000083C0008B1F900305A1C05D0834201D122
:1026B000486870470C31F5E718467047421C10B562
:1026C000044607D0FFF7EEFF431C044602D1024840
:1026D00000F0BEF8204610BD193C000803689B6856
:1026E00018470000074B10B5036000234360836068
:1026F000C360044600F090F80349206100F01CF824
:10270000204610BD603C0008DD26000803460A464E
:102710000069191D00F03DB801460069043100F060
:1027200059B8000010B50446024B0360FFF7F4FFF0
:10273000204610BD603C000838B504460D460368CD
:102740001B68984763681D6038BD036870B5DB6817
:102750000446984763685A6823681AB99B68BDE8BD
:10276000704018475B6815689847281A0028636806
:1027700008DC5A68916859601B68002BEAD05068E1
:102780009847E7E721685A68BDE870400B69106810
:102790001847F8B507460D461C46164600F06AF87D
:1027A00079686C604C682E60002334B12268B21ADC
:1027B000002A02DB2346A468F7E72BB93B684D608B
:1027C0001B693046984700E09D60AC60BDE8F8406A
:1027D00000F07AB838B505460C4600F04BF86A6848
:1027E0005368A3420BD19B6853602A6813B993685E
:1027F00098470AE012691868904706E0134623B12B
:102800009A68A242FAD1A2689A60BDE8384000F006
:102810005BB803685B68184700487047803C000855
:102820000148FFF792BF00BF803C000870B5064624
:102830000D46144600F01EF831462A46234603484A
:10284000FEF7BEF8BDE87040FEF788B8883C000887
:102850000FB407B504A951F8040B0191FEF788F8ED
:102860000120FEF7D1FAEFF3108000F0010080F0B4
:102870000100704738B5FFF7F6FF80F00100C5B2E0
:1028800072B60C4C23680BB90B4B1D7023680133D7
:1028900004D10A480A493522FFF7C8FF23682BB143
:1028A00025B9084806493922FFF7C0FF23680133DC
:1028B000236038BDF8050020FC050020B93C000865
:1028C000DF3C0008223D000810B50A4C236883B1A4
:1028D000FFF7C9FF20B1084808494A22FFF7A6FFC1
:1028E0002368013B236023681BB9054B1B7803B9A0
:1028F00062B610BDF8050020223D0008DF3C00084C
:10290000FC05002038B50446FFF74EFB0546FFF7EF
:102910004BFB401BA042FAD338BD4FF47A735843A7
:10292000FFF7F0BFFEF78CBA8A892DE9F041054622
:1029300010070C465AD44B68002B05DC0B6C002B9F
:1029400002DC0020BDE8F081E66A002EF9D0002309
:1029500012F480522F682B6033D0606DA3895A0720
:1029600005D56368C01A636B0BB1236CC01A0023D2
:102970000246E66A216A2846B047431CA38906D16D
:1029800029681D294BD82B4ACA40D60747D50022B3
:1029900062602269D904226004D5421C01D12B68EF
:1029A00003B96065616B2F600029CAD004F144034C
:1029B000994202D0284600F04BFD00206063BDE83C
:1029C000F081216A01232846B047411CC6D12B68FB
:1029D000002BC3D01D2B01D0162B01D12F60B0E7E7
:1029E000A38943F04003A381BDE8F0810F69002F64
:1029F000A7D0930718BF00230E6808BF4B69A6EB4A
:102A000007080F608B60B8F1000F9ADD43463A4625
:102A1000216A2846A66AB047002807DCA38943F04C
:102A20004003A3814FF0FF30BDE8F0810744A8EBDD
:102A30000008E8E70100402038B50B6905460C4660
:102A4000DBB118B183690BB900F072F80C4B9C42F2
:102A500009D16C68B4F90C307BB121462846BDE839
:102A60003840FFF761BF074B9C4201D1AC68F1E7EA
:102A7000054B9C4208BFEC68ECE7002038BD00BF66
:102A8000583D0008783D0008383D0008014620B94F
:102A9000044B0549186800F0B7B8044B1868FFF7F5
:102AA000CBBF00BF983D0008392A0008F80000207D
:102AB000014900F0A9B800BF392A0008002310B569
:102AC000044603604360836081814366C281036181
:102AD00043618361194608225C3000F000F9054B20
:102AE00024626362044BA362044BE362044B2363DE
:102AF00010BD00BFEF2C0008112D0008492D000863
:102B00006D2D000870B568254A1E55430E4605F127
:102B1000740100F099FC044640B1002180E84200B5
:102B20000C30A06005F1680200F0D9F8204670BDB5
:102B3000836910B5044633BB8364C3640365124BD9
:102B4000124A1B688262984204BF0123836100F02D
:102B50001FF86060204600F01BF8A060204600F0DF
:102B600017F80022E06004216068FFF7A7FF012248
:102B70000921A068FFF7A2FF02221221E068FFF7F7
:102B80009DFF0123A36110BD983D0008B12A0008F4
:102B9000F8B51C4B07461E68B36913B93046FFF7FA
:102BA000C7FF4836B4687368013B03D5336833B157
:102BB0003668F7E7B4F90C506DB16834F4E70421D6
:102BC0003846FFF79FFF30600028F1D10C23044600
:102BD0003B602046F8BD4FF6FF73E3810123656635
:102BE000A3812560A560656025616561A5610822F6
:102BF000294604F15C0000F072F86563A563A564E2
:102C0000E564E6E7983D00082DE9F84380468946EB
:102C1000002600F1480414B93046BDE8F883A568E1
:102C20006768013F01D52468F5E7AB89012B07D917
:102C3000B5F90E30013303D029464046C847064354
:102C40006835EEE770B500250C4E0D4CA41BA410A2
:102C5000A54209D100F0E8FC00250A4E0A4CA41B4D
:102C6000A410A54205D170BD56F82530984701350E
:102C7000EEE756F8253098470135F2E75C01002071
:102C80005C0100205C01002064010020024B014631
:102C9000186800F0D9BB00BFF8000020024B0146C5
:102CA000186800F0D5BB00BFF800002010B5C9B20D
:102CB00002449042034601D1002010BD1C7801302F
:102CC0008C42F6D1184610BD10B5431E0A449142FD
:102CD00000D110BD11F8014B03F8014FF7E703468F
:102CE0000244934200D1704703F8011BF9E710B585
:102CF0000C46B1F90E1000F07BFB0028ABBF636DF2
:102D0000A3891B1823F48053ACBF6365A38110BD56
:102D10002DE9F0411F468B890546DB050C4616461A
:102D200005D502230022B1F90E1000F067F8A3893F
:102D3000324623F48053A381B4F90E103B46284653
:102D4000BDE8F04100F038B810B50C46B1F90E10EE
:102D500000F054F8431CA38915BF606523F4805329
:102D600043F48053A38118BFA38110BDB1F90E10A5
:102D700000F034B810B59AB0009104916FF00041A2
:102D8000029105914FF6FF714FF40274ADF80E10E9
:102D90006946ADF80C4000F09FF80022009B1A70C5
:102DA0001AB010BD13460A46014602480068FFF7F4
:102DB000E1BF00BFF800002038B5054608461146BF
:102DC0000022054C22601A46FDF778FF431C02D111
:102DD000236803B12B6038BD9406002038B500236A
:102DE000054C054608462360FDF752FF431C02D1FF
:102DF000236803B12B6038BD9406002038B5054622
:102E0000084611460022054C22601A46FDF7A0FF35
:102E1000431C02D1236803B12B6038BD9406002007
:102E20002DE9F0478E6882469E420C4691469846B0
:102E300035D88A8912F4906F31D002232568096948
:102E40006F1A656905EB450595FBF3F508F101037C
:102E50003B449D4238BF1D46530531D5294600F0FD
:102E6000F3FA064650B90C23CAF80030A3894FF094
:102E7000FF3043F04003A381BDE8F0873A46216963
:102E8000FFF722FFA38923F4906343F08003A3811B
:102E900026613E44266046466561ED1BA5604645B9
:102EA00028BF464649463246206800F0B3FAA36878
:102EB00000209B1BA36023681E442660BDE8F087AA
:102EC0002A4600F0C3FA06460028E1D1216950469F
:102ED00000F0BEFAC7E700002DE9F04F9DB0039364
:102EE0008B8980461C060D4616460FD50B696BB9BB
:102EF000402100F0A9FA2860286128B90C23C8F8FD
:102F000000304FF0FF30C4E040236B610023099391
:102F100020238DF8293030234FF0010B8DF82A3013
:102F200037463C4614F8013B002B3CD1B7EB060A70
:102F30000BD05346324629464046FFF771FF013019
:102F400000F0A280099B534409933B78002B00F0CA
:102F50009B8000234FF0FF32049307930592069362
:102F60008DF853301A93052221785048FFF79EFEC2
:102F7000671C049BD8B9D90644BF20228DF8532082
:102F80001A0744BF2B228DF8532022782A2A16D004
:102F900000210A20079A27463B780134303B092B51
:102FA00050D9C9B111E0252BC0D02746B9E73F4A17
:102FB0003C46801A0BFA00F018430490D3E7039ABA
:102FC000111D12680391002A01DB079204E05242AE
:102FD00043F00203079204933B782E2B0DD17B78AC
:102FE000791C2A2B32D1039B02371A1D1B680392CE
:102FF000002BB8BF4FF0FF3305932D4C03223978D7
:103000002046FFF753FE38B14023001B03FA00F0BF
:10301000049B0137034304933978062225487E1C1C
:103020008DF82810FFF742FE002835D0224BFBB95F
:10303000039B073323F0070308330393099B4B4497
:1030400009936DE700FB02320121A4E700230A2463
:10305000184605930F463A780131303A092A03D9C8
:10306000002BCAD00590C8E704FB00200123F1E73C
:1030700003AB00932A46114B04A94046AFF30080EE
:10308000B0F1FF3F8146D9D1AB895B063FF539AF3F
:1030900009981DB0BDE8F08F03AB00932A46074B9B
:1030A00004A9404600F084F8EAE700BF9C3D000810
:1030B000A23D0008A63D000800000000212E0008E7
:1030C0002DE9F04791461F468A680B6906469342F0
:1030D000B8BF1346C9F8003091F843200C46DDF81C
:1030E000208012B10133C9F800302368990642BF2D
:1030F000D9F800300233C9F80030256815F006050C
:1031000007D104F1190AE368D9F800209B1A9D42FF
:103110002ADB94F843302268003318BF012392065B
:103120002FD404F1430239463046C047013022D043
:103130002368E56803F00603042B18BF0025D9F8BF
:1031400000204FF0000908BFAD1AA368226908BF2C
:1031500025EAE5759342C4BF9B1AED181A344D4514
:103160001BD10020BDE8F087012352463946304686
:10317000C047013003D14FF0FF30BDE8F087013583
:10318000C1E73020E11881F843005A1C94F845103B
:103190002244023382F84310C3E701232246394612
:1031A0003046C0470130E6D009F10109D7E70000F9
:1031B0002DE9F04317460A7E85B06E2A98460646EA
:1031C0000C460C9B01F1430E00F0BC801AD8632A18
:1031D0002ED00AD8002A00F0C880582A00F08A8031
:1031E00004F1420584F842202AE0642A01D0692AC9
:1031F000F6D121681A6811F0800F23D0111D1960D3
:10320000136827E0732A00F0B48008D86F2A2AD008
:10321000702AE5D10A6842F020020A6003E0752AAC
:1032200021D0782ADCD178226F4984F8452064E0E7
:103230001A6801F14205111D1960136884F84230C3
:103240000123A3E011F0400F02F104011960D7D06F
:10325000B2F90030002B03DA2D225B4284F84320C0
:1032600062490A2217E02068196810F0800F03D025
:10327000081D18600B6806E010F0400F01F1040013
:103280001860F7D00B886F2A14BF0A22082257490A
:10329000002084F843006568002DA560C0F29C8082
:1032A000206820F004002060002B3FD1002D40F06A
:1032B00095807546082A0BD12368DA0708D523695B
:1032C00062689A42DEBF302305F8013C05F1FF3504
:1032D000AEEB05032361CDF800803B4603AA2146EF
:1032E0003046FFF7EDFE013055D14FF0FF3005B00D
:1032F000BDE8F08381F845203C492268186812F047
:10330000800F00F104051D6001D0036802E055063E
:10331000FBD50388D00744BF42F0200222601BB9CE
:10332000226822F0200222601022B1E77546B3FB2A
:10333000F2F002FB1033CB5C05F8013D0346002898
:10334000F5D1B7E708681A6810F0800F496904D012
:10335000101D18601368196007E010F0400F02F1AB
:10336000040018601368F6D01980002375462361A5
:10337000B1E71A68111D19601568002162682846B6
:10338000FFF794FC08B1401B606063682361002371
:1033900084F843309FE723692A4639463046C047C0
:1033A0000130A2D023689B0707D5002504F1190935
:1033B000E368039A9B1A9D4205DBE068039B9842F1
:1033C000B8BF184693E701234A4639463046C047FE
:1033D00001308AD00135EBE7002BA7D10B7804F13F
:1033E000420584F8423065E7BE3D0008AD3D000867
:1033F00038B50546084611460022054C22601A469B
:10340000FDF784FC431C02D1236803B12B6038BD57
:1034100094060020884210B501EB020303D8421E37
:1034200099420CD110BD9842F9D28118D21AD342D8
:1034300000D110BD13F8014D01F8014DF7E711F867
:10344000014B02F8014FEBE700F050B800F0ACB8C8
:1034500000F000B838B50546002943D051F8043CC7
:103460000C1F002BB8BFE418FDF7D5FC1E4A1368EB
:10347000104633B9636014602846BDE83840FDF754
:10348000CEBCA3420BD921686218934201BF1A68CF
:103490005B685218226063600460EDE713465A6867
:1034A0000AB1A242FAD919685818A0420BD1206873
:1034B0000144581882421960DED1106852680144F4
:1034C00019605A60D8E702D90C232B60D4E7206832
:1034D00021188A4201BF1168526809182160626090
:1034E0005C60C9E738BD00BF0006002070B5CD1C88
:1034F00025F0030508350C2D38BF0C25002D064698
:1035000001DBA94203D90C233360002070BDFDF715
:1035100082FC234A1468214691B9224C23681BB9C6
:10352000304600F067F820602946304600F062F827
:10353000431C26D10C2330463360FDF770FCE4E7D2
:103540000B685B1B1AD40B2B0FD90B60CC18CD501A
:103550003046FDF764FC04F10B00231D20F007004A
:10356000C31A1BD05A42E25070BD8C420BBF636835
:103570004B681360636018BF0C46E9E70C46496866
:10358000CAE7C41C24F00304A04205D0211A304627
:1035900000F030F80130CDD02560D9E770BD00BF14
:1035A0000006002004060020F8B5074614460E4623
:1035B00021B91146BDE8F840FFF746BF22B9FFF731
:1035C00047FF25462846F8BD00F024F884420FD96D
:1035D00021463846FFF738FF05460028F2D031462D
:1035E0002246FFF771FB31463846FFF731FFE9E726
:1035F0003546E7E738B50023054C05460846236005
:10360000FDF7CCFB431C02D1236803B12B6038BD0E
:103610009406002051F8040C0028A0F10400BCBF5F
:103620000B58C01870470000F8B500BFF8BC08BCC4
:103630009E467047F8B500BFF8BC08BC9E46704770
:10364000ED010008F1010008F9010008433A2F5587
:10365000736572732F62656E69742F4F6E65447265
:103660006976652F446F63756D656E746F732F5047
:10367000726163746963612F4D4245444743435F00
:1036800056534332332F6D6265642F544152474580
:10369000545F4E55434C454F5F4631303352422FB5
:1036A0005441524745545F53544D2F6770696F5FC3
:1036B0006F626A6563742E68006F626A2D3E70697E
:1036C0006E20213D202850696E4E616D65294E4364
:1036D0000000000003000000004400401000000053
:1036E0000A00000000380140100000001700000030
:1036F00000380140900100001B000000004800401D
:10370000100000002B000000004800409002000064
:10371000FFFF0000FFFFFFFF0000000002000000AD
:103720000044004013000000090000000038014080
:103730001300000016000000003801409301000053
:103740001A00000000480040130000002A0000009A
:103750000048004093020000FFFF0000FFFFFFFF52
:1037600000000000433A5C4A656E6B696E735C77DB
:103770006F726B73706163655C6D6265642D322D71
:103780006275696C642D6C6962726172795C7461D6
:1037900072676574735C5441524745545F53544D8E
:1037A0005C6770696F5F6170692E630050696E6D50
:1037B0006170206572726F723A2077726F6E672047
:1037C000706F7274206E756D6265722E00433A5C84
:1037D0004A656E6B696E735C776F726B7370616351
:1037E000655C6D6265642D322D6275696C642D6C4B
:1037F0006962726172795C746172676574735C543A
:1038000041524745545F53544D5C544152474554CF
:103810005F53544D333246315C70696E6D61702E6A
:103820006300000000000000010000001100000023
:103830000200000012000000030000000000111050
:1038400000002110000031100000121000002210B2
:103850000000321000000010457863657074696FD5
:103860006E0030203D3D20282A67756172645F6FCD
:10387000626A6563742026204358415F4755415270
:10388000445F4D41534B2900433A5C4A656E6B6976
:103890006E735C776F726B73706163655C6D62658C
:1038A000642D322D6275696C642D6C69627261726F
:1038B000795C706C6174666F726D5C726574617254
:1038C0006765742E637070004358415F47554152DD
:1038D000445F494E49545F494E5F50524F475245ED
:1038E0005353203D3D20282A67756172645F6F62E3
:1038F0006A6563742026204358415F47554152440E
:103900005F4D41534B29004F70657261746F722097
:103910006E6577206F7574206F66206D656D6F72B0
:10392000790D0A004F70657261746F72206E657751
:103930005B5D206F7574206F66206D656D6F7279A9
:103940000D0A005F707472203D3D202854202A2902
:10395000265F6461746100433A2F4A656E6B696E3D
:10396000732F776F726B73706163652F6D6265641F
:103970002D322D6275696C642D6C69627261727989
:103980002F4255494C442F6D6265642F706C6174F1
:10399000666F726D2F53696E676C65746F6E5074CD
:1039A000722E68003A25700043616E6E6F74206954
:1039B0006E697469616C697A6520554152540A00D8
:1039C0006F626A5F732D3E7561727420213D2028FD
:1039D000554152544E616D65294E4300433A5C4A4D
:1039E000656E6B696E735C776F726B737061636524
:1039F0005C6D6265642D322D6275696C642D6C6935
:103A000062726172795C746172676574735C54414F
:103A1000524745545F53544D5C5441524745545F9F
:103A200053544D333246315C73657269616C5F612A
:103A300070692E63006F626A00747820213D20282F
:103A4000766F69642A29300074785F7769647468D6
:103A5000203D3D203800727820213D2028766F6976
:103A6000642A29300072785F7769647468203D3D6C
:103A7000203800756172745F72747320213D2028B4
:103A8000554152544E616D65294E43007561727403
:103A90005F63747320213D2028554152544E616D5F
:103AA00065294E430002030405060708090A0B0CAA
:103AB0000D0E0F10100102000000000000000001B8
:103AC00002030406070809000000000102030400C5
:103AD000000000000000000091200008B520000850
:103AE0008D2000088F20000800000000000000006A
:103AF000A1210008C52100089D2100089F21000880
:103B00000000000000000000AD220008AF22000805
:103B1000F1030008D90400085F6F707300433A2F67
:103B20004A656E6B696E732F776F726B737061632A
:103B3000652F6D6265642D322D6275696C642D6C24
:103B40006962726172792F4255494C442F6D6265EA
:103B5000642F706C6174666F726D2F43616C6C6260
:103B600061636B2E68000000000000000000000090
:103B70000723000809230008A5030008DD03000847
:103B800000000000000000006D0300089103000821
:103B90002D250008433A2F4A656E6B696E732F77A7
:103BA0006F726B73706163652F6D6265642D322D6A
:103BB0006275696C642D6C6962726172792F42550D
:103BC000494C442F6D6265642F5441524745545F00
:103BD0004E55434C454F5F4631303352422F54418E
:103BE000524745545F53544D2F6770696F5F6F6242
:103BF0006A6563742E6800636F756C64206E6F7401
:103C00002070696E6F75740070696E6D6170206DE3
:103C100069732D6D617463680070696E6D617020E9
:103C20006E6F7420666F756E6420666F72207065AB
:103C3000726970686572616C0070696E6D61702088
:103C40006E6F7420666F756E6420666F7220667585
:103C50006E6374696F6E00000000000000000000D9
:103C60000000000000000000750D0008851F00081E
:103C7000A91F00085920000871200008F11F000842
:103C80006C3C0008F00500206D6265642061737370
:103C90006572746174696F6E206661696C65643AFF
:103CA0002025732C2066696C653A2025732C206CC6
:103CB000696E65202564200A00696E7465727275EC
:103CC00070745F656E61626C655F636F756E74655D
:103CD00072203C2055494E5433325F4D41580043C9
:103CE0003A5C4A656E6B696E735C776F726B73706A
:103CF0006163655C6D6265642D322D6275696C640B
:103D00002D6C6962726172795C706C6174666F723D
:103D10006D5C6D6265645F637269746963616C2E6A
:103D20006300696E74657272757074735F64697331
:103D300061626C656400000000000000000000008B
:103D40000000000000000000000000000000000073
:103D50000000000000000000000000000000000063
:103D60000000000000000000000000000000000053
:103D70000000000000000000000000000000000043
:103D80000000000000000000000000000000000033
:103D90000000000000000000FC000020232D302B5C
:103DA0002000686C4C00656667454647003031323C
:103DB0003334353637383941424344454600303193
:103DC00032333435363738396162636465660000F2
:043DD00000000000EF
:083DD400A4C3FF7F0100000001
:103DDC00000000009806002000A24A04FC0000200D
:103DEC0000000000583D0008783D0008383D0008F0
:103DFC0000000000000000000000000000000000B7
:103E0C0000000000000000000000000000000000A6
:103E1C000000000000000000000000000000000096
:103E2C000000000000000000000000000000000086
:103E3C000000000000000000000000000000000076
:103E4C0031010008ED0400080D010008000000001D
:04000005080011F5E9
:00000001FF
